:1000000013C1000023C1000021C100001FC1000076
:100010001DC100001BC1000019C1000017C1000074
:1000200015C1000013C1000011C100000FC1000084
:100030000DC100000BC1000009C1000007C1000094
:1000400005C1000003C1000001C10000FFC00000A5
:10005000FDC00000FBC00000F9C00000B7C10000F7
:10006000F5C00000F3C00000F1C00000EFC00000C8
:10007000EDC00000EBC00000E9C00000E7C00000D8
:10008000E5C00000E3C00000E1C00000DFC00000E8
:10009000DDC00000DBC00000D9C00000D7C00000F8
:1000A000D5C00000D3C00000D1C00000CFC0000008
:1000B000CDC00000CBC00000C9C00000C7C0000018
:1000C000C5C00000C3C00000C1C00000BFC0000028
:1000D000BDC00000BBC00000B9C00000B7C0000038
:1000E000B5C0000041014401330137013D017B01EE
:1000F00048014C01520156015A0160016401680136
:100100007B016E01720176010000200023002600B1
:1001100029002C002F00320000010000030106011D
:10012000090100002100240027002A002D003000D2
:10013000330001010000040107010A010000220050
:10014000250028002B002E003100340002010000A1
:10015000050108010B010505050507050808080844
:10016000020202020A0A080804040404010101014F
:10017000010101010303030303030303040707074A
:100180000C0C0C0C0C0C0C0C0202020206060606EF
:10019000060606060B0B0B0B0B0B0B0B01021020BC
:1001A00020080810204010204080020102010804AD
:1001B0000201010204081020408080402010080441
:1001C000020180040201804020100804020108049A
:1001D00002010102040810204080010204081020DE
:1001E000408000000A0B02090C0D0E0807030401F1
:1001F00000000000000000000000000000000000FF
:1002000000000000000000000000000000001211CB
:1002100010000000000000000000000000000000CE
:10022000000000000000000011241FBECFEFD1E24B
:10023000DEBFCDBF00E00CBF22E0A0E0B2E001C015
:100240001D92AB30B207E1F70BD1E9C1D9CE90E0F6
:10025000FC013197E231F10508F04DC08827EE58D6
:10026000FF4F8F4FD4C1809180008F7703C0809162
:1002700080008F7D80938000089580918000877F2B
:10028000F9CF84B58F7702C084B58F7D84BD089582
:100290008091B0008F7703C08091B0008F7D8093F4
:1002A000B0000895809190008F7707C080919000F2
:1002B0008F7D03C080919000877F80939000089588
:1002C0008091A0008F7707C08091A0008F7D03C030
:1002D0008091A000877F8093A000089580912001E5
:1002E0008F7707C0809120018F7D03C0809120010E
:1002F000877F8093200108951F93CF93DF93282F4A
:1003000030E0F901EE51FE4F8491F901E456FE4FC1
:10031000D491F901EA5AFE4FC491CC23B9F0162FBB
:10032000811195DFEC2FF0E0EE0FFF1FE45CFE4F34
:10033000A591B4919FB7F894111104C08C91D095F8
:10034000D82302C0EC91DE2BDC939FBFDF91CF91CD
:100350001F910895CF93DF9390E0FC01E456FE4F88
:100360002491FC01EA5AFE4F8491882361F190E0C8
:10037000880F991FFC01EE5DFE4FC591D491FC01E1
:10038000E45CFE4FA591B491611109C09FB7F89448
:100390008881209582238883EC912E230BC06230C4
:1003A00061F49FB7F8948881322F30958323888336
:1003B000EC912E2B2C939FBF06C08FB7F894E88149
:1003C0002E2B28838FBFDF91CF9108951F920F921C
:1003D0000FB60F9211242F933F938F939F93AF9358
:1003E000BF938091070290910802A0910902B091F9
:1003F0000A023091060223E0230F2D3720F40196E4
:10040000A11DB11D05C026E8230F0296A11DB11D37
:10041000209306028093070290930802A09309029A
:10042000B0930A028091020290910302A09104020B
:10043000B09105020196A11DB11D80930202909317
:100440000302A0930402B0930502BF91AF919F9164
:100450008F913F912F910F900FBE0F901F90189585
:10046000789484B5826084BD84B5816084BD85B58F
:10047000826085BD85B5816085BD80916E0081609B
:1004800080936E0010928100809181008260809341
:100490008100809181008160809381008091800043
:1004A0008160809380008091B10084608093B1006E
:1004B0008091B00081608093B00080919100826053
:1004C0008093910080919100816080939100809150
:1004D00090008160809390008091A1008260809361
:1004E000A1008091A10081608093A1008091A00073
:1004F00081608093A000809121018260809321011E
:10050000809121018160809321018091200181608F
:100510008093200180917A00846080937A0080919A
:100520007A00826080937A0080917A008160809363
:100530007A0080917A00806880937A001092C100DE
:1005400061E085E007DF61E086E004DF61E087E0ED
:1005500001DF60E085E0D0DE61E086E0CDDE61E0D5
:1005600087E0CADE61E089E0F5DE61E088E0F2DE86
:1005700061E08AE0EFDE60E089E0BEDE60E088E016
:10058000BBDE61E08AE0B8DE60E082E0E3DEC4EE7C
:10059000D1E00EE911E098E5E92E91E0F92E9924D9
:1005A00093942BE9C22ED12C30E0A32E30E0B32E51
:1005B000FE018491F8018490F70174907720B1F0E6
:1005C000811145DEE72DF0E0EE0FFF1FE85FFE4FE3
:1005D000A591B4918C91882249F0C6010197F1F759
:1005E000A114B10429F30E940000E2CF809001021F
:1005F0008924682D87E080DE8092010280900002CD
:100600008924682D8AE078DE80920002E6CFEE0F22
:10061000FF1F881F8BBF0790F691E02D1994F89467
:02062000FFCF0A
:00000001FF
